S01800006275696C642F6D6963617A2F6D61696E2E73726563E5
S11300000C946A010C94B2170C94BC170C94611EE6
S11300100C94C6170C94D0170C94DA170C94AD1FDB
S11300200C94E4170C9489010C9489010C941D3AE6
S11300300C94FF3D0C947C170C9492170C942E1A7C
S11300400C94E2160C94713D0C9489010C94890172
S11300500C9489010C94F3160C9489010C94890175
S11300600C9487170C9489010C9489010C948901D0
S11300700C9489010C9489010C9489010C948901D4
S11300800C9489010C9489010C9489019E44A24426
S1130090A644D844344537453D4540454345494544
S11300A04C454F45524555453B4A3E4A604AAE4B46
S11300B0634A6A4AB44AB24BB54BC04BC34BC64BB6
S11300C0CF4BD24BD54BF74BFA4B054C194C000098
S11300D02110422063308440A550C660E770088137
S11300E029914AA16BB18CC1ADD1CEE1EFF13112AE
S11300F0100273325222B5529442F772D662399387
S113010018837BB35AA3BDD39CC3FFF3DEE36224FD
S1130110433420040114E664C774A44485546AA5D6
S11301204BB528850995EEE5CFF5ACC58DD553368D
S1130130722611163006D776F6669556B4465BB726
S11301407AA719973887DFF7FEE79DD7BCC7C4485D
S1130150E5588668A7784008611802282338CCC976
S1130160EDD98EE9AFF9488969990AA92BB9F55AED
S1130170D44AB77A966A711A500A333A122AFDDBC6
S1130180DCCBBFFB9EEB799B588B3BBB1AABA66CBD
S1130190877CE44CC55C222C033C600C411CAEED16
S11301A08FFDECCDCDDD2AAD0BBD688D499D977ECD
S11301B0B66ED55EF44E133E322E511E700E9FFF66
S11301C0BEEFDDDFFCCF1BBF3AAF599F788F88911C
S11301D0A981CAB1EBA10CD12DC14EF16FE1801000
S11301E0A100C230E3200450254046706760B98303
S11301F09893FBA3DAB33DC31CD37FE35EF3B10250
S11302009012F322D2323542145277625672EAB512
S1130210CBA5A89589856EF54FE52CD50DC5E2349F
S1130220C324A01481046674476424540544DBA7E2
S1130230FAB79987B8975FE77EF71DC73CD7D326EF
S1130240F2369106B01657667676154634564CD972
S11302506DC90EF92FE9C899E9898AB9ABA944583F
S1130260654806782768C018E1088238A3287DCB42
S11302705CDB3FEB1EFBF98BD89BBBAB9ABB754A8F
S1130280545A376A167AF10AD01AB32A923A2EFDD2
S11302900FED6CDD4DCDAABD8BADE89DC98D267CDF
S11302A0076C645C454CA23C832CE01CC10C1FEF22
S11302B03EFF5DCF7CDF9BAFBABFD98FF89F176E2F
S11302C0367E554E745E932EB23ED10EF01E00085B
S11302D01C18141011241FBECFEFD0E1DEBFCDBF18
S11302E013E0A0E0B1E0ECECFAEA00E00BBF02C0DE
S11302F007900D92A433B107D9F71DE0A4E3B3E04E
S113030001C01D92A834B107E1F70E94CF4C0C94B0
S113031065550C940000FC018081992782FF02C07E
S113032024E001C020E083FD2B5F86819781820F4A
S1130330911D0895FC01A681B7812181109721F1B7
S1130340222311F19C91892F82958695869583703D
S113035019F420E130E01AC0969596959695983157
S113036019F020E030E008C0243019F424E030E033
S11303700DC0149624E030E08C9186958695869580
S11303808C3121F4286002C020E030E0C9010895D6
S1130390FC01A681B78181811097E1F0282F3327D2
S11303A0108262FF0AC024303105A0F084E080830B
S11303B080EC8C9314962450304063FF08C028309E
S11303C0310540F080818860808380EE8C9380E0EA
S11303D090E0089581E090E00895FC0180819927E0
S11303E0847090700895FC018081992788709070C2
S11303F00895CF93DF93CDB7DEB722970FB6F89465
S1130400DEBF0FBECDBFDB01FC0146815781411524
S11304105105C1F0672BB1F0FA019081892F8695BF
S113042086958695883111F08C3161F497709983A3
S1130430FA0181818A83282F392F2D933C9380E000
S113044090E002C081E090E022960FB6F894DEBFFF
S11304500FBECDBFDF91CF910895CF93DF93DB0122
S1130460EC01EE81FF81309789F0672B79F0808170
S1130470869586958695883111F08C3139F42381DF
S113048032812D933C9380E090E002C081E090E0C3
S1130490DF91CF910895CF93DF93DB01EC01EE81DF
S11304A0FF81309769F0672B59F080818695869596
S11304B086958C3129F484818C9380E090E002C08D
S11304C081E090E0DF91CF910895CF93DF93EC0129
S11304D0EE81FF813097C9F08081982F969596958B
S11304E09695983111F09C3181F4887F8083118234
S11304F0CB019770292F382F80819181822B932BE8
S11305009183808380E090E002C081E090E0DF91FD
S1130510CF910895CF93DF93EC01EE81FF81309763
S113052079F08081869586958695883111F08C3195
S113053039F4272F362F3383228380E090E002C0E2
S113054081E090E0DF91CF910895CF93DF93EC01A8
S1130550EE81FF81309751F080818695869586954E
S11305608C3121F4648380E090E002C081E090E06B
S1130570DF91CF91089580E091E00895CF93DF93C8
S1130580DC01FB018581282F3327FD018681813120
S113059011F428503040FD0145815481CA01821B69
S11305A0930BC92FD82FD583C483DF91CF9108959E
S11305B04F925F926F927F928F929F92AF92BF926F
S11305C0CF92DF92EF92FF920F931F93CF93DF931B
S11305D0FB015A012B01440E551EDC01CC24DD2401
S11305E000E010E07AE399EF692E9FEF792E640C16
S11305F0751C6E167F0618F48FEF9FEF63C0ED0134
S1130600E980FC9024E030E08FEF882E982E4CE0B7
S113061050E0C401022E02C0969587950A94E2F731
S11306208E159F0530F002301105B1F420313105EB
S113063099F4C701042E02C0969587950A94E2F7AF
S1130640682F6F708F7090700A9718F4862F805DF2
S113065002C0862F895A81932C5F3F4F44505040EB
S113066024313105B1F68D919C911197892B31F587
S11306700115110559F471938D919C911197892B52
S113068019F401E010E002C002E010E087E0C816AF
S1130690D10424F40130110509F071930894C11CAC
S11306A0D11C129688E0C816D10409F0A2CF119289
S11306B04A185B08CF018419950904C0013011055B
S11306C029F7E2CFDF91CF911F910F91FF90EF9027
S11306D0DF90CF90BF90AF909F908F907F906F905E
S11306E05F904F9008958F929F92AF92BF92CF9256
S11306F0DF92EF92FF920F931F93CF93DF936C01DE
S11307004B01892B09F4A0C0672B09F49DC060E15B
S113071070E0C4010E943809D60140E050E060E076
S113072045C09A33F9F0892F80538A3030F4892FE9
S1130730992787FD9095C0970DC0292F332727FD52
S113074030959154963018F4C901C79703C0C90174
S113075087559040E4E0440F551FEA95E1F7482B94
S1130760592B0DC0E62FFF27EE0FFF1FE80DF91DD3
S1130770052F142F118300836F5F40E050E0FD01CB
S11307803196ED019981992359F4E62FFF27EE0F55
S1130790FF1FE80DF91DE52EF42EF182E08254C00E
S11307A08C918A3311F49A3341F0DF019C9199239F
S11307B009F0B7CFFD0101C0319680818823E1F7AC
S11307C0DF01119740E050E077E060E03AC09C918F
S11307D09A3309F1892F80538A3030F4892F99276D
S11307E087FD9095C0970DC0292F332727FD30959D
S11307F09154963018F4C901C79703C0C9018755AD
S11308009040062E02C0880F991F0A94E2F7482BE5
S1130810592B6C5F0EC0E72FFF27EE0FFF1FE80D6B
S1130820F91DA52EB42EB182A082715040E050E093
S113083060E01197FD0181818A3319F48C918A3328
S113084019F0CA16DB0618F2DF91CF911F910F91B0
S1130850FF90EF90DF90CF90BF90AF909F908F90DC
S11308600895CF93DF93C0E0D0E048E050E00E94C9
S11308705251892B11F4C1E0D0E0CE01DF91CF9128
S113088008950F931F93CF93DF938B01EA01843074
S113089051F4809134038823A1F168E071E0CA0126
S11308A00E94310407C0833061F560E071E0CA0141
S11308B00E943104882329F18885882381F489855D
S11308C0882369F48A85882351F48B85882339F435
S11308D08C85882321F48D85882309F446C02896C5
S11308E048E050E0BE01D8018D919C910E944109DD
S11308F0F8018081918108969183808381E090E062
S113090046C088818F3FF9F489818F30E0F4D801A3
S1130910ED91FC91119780EA8083ED91FC91119700
S11309208981880F9081892B8083ED91FC911197A7
S11309309E8591708081892B8083ED91FC91119724
S11309408F8581831CC040E150E0BE01F8018081A5
S113095091810E944109D8018D919C9111974096F3
S11309608D939C9380E090E012C02E9642E050E07C
S1130970BE01F801808191810E944109D8018D91C5
S11309809C91119702968D939C9382E090E0DF9165
S1130990CF911F910F9108952F923F924F925F92A2
S11309A06F927F928F929F92AF92BF92CF92DF927B
S11309B0EF92FF920F931F93CF93DF93CDB7DEB7E0
S11309C024970FB6F894DEBF0FBECDBF4C01242E82
S11309D0F6E0EF2EF12CE80EF91E5B016B01089492
S11309E0C11CD11C0894C11CD11CDA82C982089490
S11309F0C108D108FB011182FC018681803651F4C3
S1130A00F7018181882331F48281882319F4838159
S1130A10882369F044E050E0B70189819A810E94FB
S1130A20410989819A8104969A83898303C080E865
S1130A30FB018183F7013680F1E13F1651F4F401A3
S1130A4080819181892B29F0F601808180648083E3
S1130A5008C0E981FA81308289819A8101969A835A
S1130A608983A981BA81F70187818C9389819A81CD
S1130A7001969A838983809134038823B9F068E0CE
S1130A8071E0C70108960E943104882341F468E0AC
S1130A9071E0C70148960E943104882339F084E04C
S1130AA00CC08C2DDBC080E090E0DAC060E071E027
S1130AB0C70108960E94310483E0F501808328E091
S1130AC030E0E20EF31EA7018E010F5F1F4FB80145
S1130AD0F50180810E944104880F880F880FF60178
S1130AE09081982B908320E130E0E20EF31EA70161
S1130AF0B801F50180810E944104880FF6019081BC
S1130B00982B90831A2D89818A19022D081BF401D0
S1130B10A080B180882499249CC0F1E13F1609F09B
S1130B207DC08114910409F079C0F501E180F2805F
S1130B30C980DA80083008F4B4CF80E8F6018083F5
S1130B40A981BA819D012F5F3F4F3C832B833A8358
S1130B502983F70161807080C301807F805B904F9F
S1130B6079F4862D8295807FFD018183F601808151
S1130B708064808389819A8101969A8389830EC0D7
S1130B8042E050E0B7018B819C810E944109898138
S1130B909A8102969A8389831C821B82F70143807F
S1130BA05280C201807F805B904FD9F4942D9F7056
S1130BB02B813C81232B59F4E981FA819295907F12
S1130BC0908389819A8101969A83898305C0EB81F8
S1130BD0FC818081892B8083F601808180628083FF
S1130BE00EC0B7016E5F7F4F42E050E089819A8169
S1130BF00E94410989819A8102969A83898326E019
S1130C0030E0E20EF31E42E050E0B70189819A81A0
S1130C100E94410989819A81029613C0F50140819D
S1130C20041708F440CF55276181728189819A8124
S1130C300E944109F5012081021B89819A81820F5A
S1130C40911D9A838983F501A380B4800894811C43
S1130C50911CA114B10409F060CF8981811B9927EB
S1130C6024960FB6F894DEBF0FBECDBFDF91CF91AF
S1130C701F910F91FF90EF90DF90CF90BF90AF90B6
S1130C809F908F907F906F905F904F903F902F90A8
S1130C9008952F923F924F925F926F927F928F921C
S1130CA09F92AF92BF92CF92DF92EF92FF920F93F7
S1130CB01F93CF93DF93CDB7DEB762970FB6F89447
S1130CC0DEBF0FBECDBF1E861D86188A1F861A8AF8
S1130CD0198A2C014B016A013C872B870E948B01E6
S1130CE07C0160E170E0C4010E943809E114F10460
S1130CF009F4A4C22B853C852832310508F493C23B
S1130D00F70131908F01F7012180832D83508230C8
S1130D1008F089C278010894E11CF11C27FC0CC07E
S1130D2044E050E0B701C6010E94410955E0E52EB8
S1130D30F12CE00EF11E08C064E070E0C6010E94D0
S1130D40380980E6F601808396012C5F3F4F38878F
S1130D502F83C60106969E838D83222D3327F901A6
S1130D60E074F070FA87E98726FD05C0F7018191E8
S1130D707F01F6018683F4011782168225FD0AC0DD
S1130D80F7018081F6018783F401F782E6820894F3
S1130D90E11CF11C8601085F1F4FF201A280B380A1
S1130DA0F3E03F1619F068E071E002C060E071E022
S1130DB0D22CD694D694D69423E0D22231E0D31602
S1130DC0A1F0D31638F082E0D816F1F0D21609F06B
S1130DD07FC066C040E150E0B701C8010E944109EC
S1130DE0E0E1F0E0EE0EFF1E73C048E050E0C80101
S1130DF00E94410948E050E0B701C80108960E94EA
S1130E00410928E030E049C0F701808187FD19C01D
S1130E10F3E03F1629F448E050E060E071E004C0DC
S1130E2048E050E068E071E0C8010E94410968E0D0
S1130E3070E0C80108960E943809F70180818F7715
S1130E4024C060E170E0C8010E9438098FEFF80106
S1130E508083D182F7014081842F99279C01207ED1
S1130E6030702038310521F0203A3105A1F404C056
S1130E704F71F80146870BC08E71907095958795D8
S1130E80F8018183F70180818170F8018687F70179
S1130E908181F801878722E030E0E20EF31E18C05A
S1130EA048E050E0C8010E94410966E070E0C801D2
S1130EB008960E9438096B2C7A2C7C826B8242E063
S1130EC050E0BE016D5F7F4FC8010E960E9441093C
S1130ED030E1C32ED12CC00ED11EF201A280B3800A
S1130EE0F3E03F1619F068E071E002C060E071E0E1
S1130EF0122D16951370113089F0113030F0123024
S1130F00F1F0133009F081C066C040E150E0B70150
S1130F10C6010E94410920E130E05AC048E050E097
S1130F20C6010E94410948E050E0B701C601089695
S1130F300E94410988E090E0E80EF91E66C0F701BE
S1130F40808187FD19C0F3E03F1629F448E050E0A2
S1130F5060E071E004C048E050E068E071E0C60180
S1130F600E94410968E070E0C60108960E943809B1
S1130F70F70180818F7724C060E170E0C6010E9490
S1130F8038098FEFF60180831183F7014081842FA4
S1130F9099279C01207E30702038310521F0203AB9
S1130FA03105A1F404C04F71F60146870BC08E7160
S1130FB0907095958795F6018183F7018081817002
S1130FC0F6018687F7018181F601878722E030E008
S1130FD0E20EF31E1AC048E050E0C6010E94410927
S1130FE066E070E0C60108960E943809BD86AE86A8
S1130FF08D859E859C838B8342E050E0BE016D5FAE
S11310007F4FC6010E960E9441092B843C84E8ED73
S1131010FFEF2E0E3F1E90E1A92EB12CAC0CBD1C8F
S113102029853A85232B09F47DC0F701808187FF48
S1131030FAC0F201808180628083F8E02F163104C7
S113104008F4F1C01501F70191918F0181E1ED815F
S1131050FE818083692E772466FE10C0F7018181AA
S113106082958F70992780559F409F87888B2F8505
S11310703889F601318B208B20E00AC042E050E031
S1131080B801C5010E94410987010D5F1F4F24E08B
S113109065FE16C0F80181918F01992702C09595CC
S11310A087952A95E2F78F70907080559F40998BB1
S11310B08A8B29893A89F50133832283780110C008
S11310C0222311F40F5F1F4F42E050E0B801C50125
S11310D002960E94410982E0E82EF12CE00EF11EF6
S11310E064FC0BC042E050E0B701C50106960E94C3
S11310F0410982E090E0E80EF91E14E0C12ED12CE3
S1131100CA0CDB1CE8E0F0E0AE0EBF1E81E1F40186
S113111080838581885F858331862086B8E06B2E45
S1131120712C34C0ED81FE81D080F401D08266241C
S113113077241DC0F401F386E286F701D080C180D4
S1131140F401D0820C2D11272016310608F46BC04F
S1131150A801B701C5010E944109A00EB11EE00E0D
S1131160F11EF40185818C0D8583600E711EDD20D6
S113117009F3FBE2DF1609F459C02CE3D21609F493
S113118059C0F401B186A086CF80D884F401F282DC
S1131190E182B482A38280859185892B11F4B18682
S11311A0A086C2010E94ED01882329F4C2010E9495
S11311B0F301882361F0BE016F5F7F4FC2010E947B
S11311C0F90189819A8188979A8389831AC0F201E7
S11311D001811127868197819701281B390B021BF6
S11311E0130B060D171D1A830983C2010E948B017C
S11311F0F20126813781821B930B081B190B1A837A
S1131200098389819A81292F3327EF81F8852083E7
S113121099819183ED81FE818081813179F4F60198
S1131220208391830BC0EE24FF2408C0F401F586CB
S1131230E48683CFF401F786E6867FCFC701629602
S11312400FB6F894DEBF0FBECDBFDF91CF911F91D3
S11312500F91FF90EF90DF90CF90BF90AF909F9051
S11312608F907F906F905F904F903F902F90089554
S1131270FC0103C011926150704061157105D1F7F2
S113128008959C01DC01FB0104C081918D934150C0
S1131290504041155105C9F7C90108952F923F9255
S11312A04F925F926F927F928F929F92AF92BF9272
S11312B0CF92DF92EF92FF920F931F93CF93DF931E
S11312C0CDB7DEB72B970FB6F894DEBF0FBECDBFF8
S11312D01B861A866C015B013A012901892B09F4EA
S11312E040C16115710509F43CC14115510509F46A
S11312F038C1198258874F832A83FB0182819381E5
S1131300009709F0AEC08EE690E00E94CD0B3C0140
S1131310009709F426C14EE6BC01C6010E94CC0424
S11313208987D601ED91FC91222405C08081280E85
S11313300380F481E02D3097C9F7B9858B2E992469
S1131340F60182819381880D991D69818E010F5F59
S11313501F4F4816590650F5646069837727C80102
S11313600E94C801882309F078C060913503709108
S113137036036F5F7F4F7093360360933503C80164
S11313800E948A02882309F068C0F601E384F2848B
S113139088E290E0E80EF91EB701C8010E946502D8
S11313A0882309F05AC024E0322E08C07727C801E8
S11313B00E94C801882309F050C03324CE0101964D
S11313C00E948B01A401B3010E9441098981222D4D
S11313D0332782FF14C07201E818F9082C5D3F4FCF
S11313E0E20EF31E24523040A8EFBFEFEA22FB22A4
S11313F0E21AF30AE8EDFFEFEE0EFF1E0AC0F60153
S1131400F385FA87F601F285FB87EA84FB84E21A06
S1131410F30AF60104811581CE0101960E948B0125
S1131420A701B801880D991D0E94410980913503D7
S113143090913603D5018D939C93C7018896820DB4
S1131440911DF50193838283C3010E94020C3E0C1B
S1131450F9853F0E832D992786C0C3010E94020C93
S113146080C0F601A385B28598968A179B0709F474
S113147078C088E0898358874F832A8368E070E0C6
S11314807E010894E11CF11CC7010E94C801882355
S113149009F067C0D5016D917C91C7010E948A0251
S11314A0882309F05EC0F60103851285085D1F4F8D
S11314B0B801C7010E946502882309F052C0F501F2
S11314C06281738193E0769567959A95E1F7C701F8
S11314D00E94A502882309F044C0F6018384928403
S11314E0F50122813381820105501040C401821B21
S11314F0930B88968017910708F48C01200F311FF5
S113150088E290E0880E991E2815390509F0087FB5
S113151085E0F82EF00EFA82D601ED91FC9128E2D6
S113152005C08081280F0380F481E02D3097C9F72E
S1131530F60164817581F50182819381680F791FB9
S1131540621B7109A801C30105960E944109F501B6
S113155082819381800F911F938382838F2D99279A
S113156002C080E090E02B960FB6F894DEBF0FBE69
S1131570CDBFDF91CF911F910F91FF90EF90DF903E
S1131580CF90BF90AF909F908F907F906F905F901F
S11315904F903F902F900895CF92DF92EF92FF9259
S11315A00F931F93CF93DF93EC017B0140E050E056
S11315B060E070E0CC24DD24A0E0B0E035C02A81F6
S11315C03B812115310561F1E881F98100E010E0EA
S11315D024C0808100FD0BC09927982F8827A82B51
S11315E0B92BC801019682179307A1F403C0992768
S11315F0A82BB92B6D01C601AA27BB27480F591F79
S11316006A1F7B1FCB01AA27BB276A01C80ED91EFC
S1131610A0E0B0E00F5F1F4F319602171307CCF222
S113162024960894E108F108E114F10441F6C60196
S113163080959095DF91CF911F910F91FF90EF903E
S1131640DF90CF900895AF92BF92CF92DF92EF9246
S1131650FF920F931F93CF93DF93CDB7DEB7A49779
S11316600FB6F894DEBF0FBECDBFFC013E96FA87DD
S1131670E98780E190E09C878B877096FE87ED87F1
S11316807E97988B8F87CE0101969A8B898B88E001
S113169090E09C8B8B8BE280F380C701AA27BB2749
S11316A089839A83AB83BC8300E010E080E090E000
S11316B0962FAA27BB27DC0199278827212F302FB3
S11316C044275527822B932BA42BB52B8D839E83E4
S11316D0AF83B887848195819E8B8D8BF88EEF8A3A
S11316E00081118164E070E0DE0159961AC0F801AE
S11316F08181928111969C938E9380819927FD011B
S113170093838283F8018081280F311D411D511D6F
S113171029833A834B835C836F5F7F4F03811481FA
S1131720149629813A814B815C8101151105F9F6E2
S1131730C9019A0144275527C92ED82EC601AA27C4
S1131740BB27DC0199278827A32EB22E95014427B5
S11317505527822B932BA42BB52B89839A83AB8398
S1131760BC83CE0109960E94CC0AA4960FB6F894C5
S1131770DEBF0FBECDBFDF91CF911F910F91FF90C0
S1131780EF90DF90CF90BF90AF90089584EF91E0F9
S113179090938303809382030895A2E8B3E00496B0
S11317A09C0121703070280F391F02C0A40FB51F8F
S11317B08D919C911197AC015F704217530710F003
S11317C097FF06C0CD0182589340845F914074F323
S11317D085E0A637B80718F080E090E00895C901C5
S11317E002979C013F70306811963C932E93FD0143
S11317F0E80FF91F481B590B5F7051834083CD01DB
S113180002960895CF93DF939C01E2E8F3E0C0E0F1
S1131810D0E006C0808191819F70EF01E80FF91F2D
S1131820CF0102968217930739F0CF018258934073
S1131830845F91407CF327C0808191819C013F703B
S1131840DF01A20FB31F9F7791838083CD0182585C
S11318509340845F91404CF48D919C9197FD05C019
S11318609F70280F391F31832083209761F02881CE
S1131870398137FD08C03F70808191819F70280FA6
S1131880391F39832883DF91CF910895E2E8F3E08B
S113189040E050E00BC02081318137FD04C0C90114
S11318A09F70480F591F3F70E20FF31FCF018258FA
S11318B09340845F91407CF3CA010895FC017183D5
S11318C0608353834283358324830895CF92DF92C8
S11318D0EF92FF920F931F93CF93DF938C016B01D1
S11318E0EE24FF241AC0F80182819381E89EE0016E
S11318F0E99ED00DF89ED00D112480819181C80FEE
S1131900D91FCE01F6010995FFEF8F3F9F0759F0CC
S1131910019759F00894E11CF11CF8018481958128
S1131920E816F90600F3C0E0D0E0CE01DF91CF91D4
S11319301F910F91FF90EF90DF90CF900895EF9259
S1131940FF920F931F93CF93DF93EC017B0100E091
S113195010E012C08A819B819C01029FC001039FF9
S1131960900D129F900D112428813981820F931FAD
S1131970F70109950F5F1F4F8C819D810817190787
S113198048F3DF91CF911F910F91FF90EF9008954D
S11319908FB7F894992708958FBF0895FC0180812B
S11319A08330B8F02181328180918A0590918B0532
S11319B02817390771F42381348180918807909125
S11319C089072817390729F483E0808381E090E0B0
S11319D0089580E090E00895FC0120E030E08081EB
S11319E0823011F421E030E0C9010895FC0182E065
S11319F0808308950895982F969596959695E0E49A
S1131A00F8E0E90FF11D877021E030E002C0220FF9
S1131A10331F8A95E2F78081822399270895282F1E
S1131A209FB7F894E82FFF27E054F94F80818F3F48
S1131A3081F4E0911F0DE21771F40BC02093910C17
S1131A4004C0FF27E054F94F208320931F0D20E0AA
S1131A5007C025E005C08091910C8F3F91F7EECF30
S1131A60892F99278FBF822F992708958FE00E948D
S1131A700F0D992708951F931FB7F89484E088BF2A
S1131A8089B7846089BF959882E090E001970196B8
S1131A900197E1F7829B06C089B78B7F89BF83E1F9
S1131AA00E940F0D812F99278FBF1F91089584E104
S1131AB00E940F0D9927089580E10E940F0D992728
S1131AC008958CE10E940F0D992708950F931F9399
S1131AD0CF93DF93182F8FB7F894282F3327022F33
S1131AE080913903882359F581E080933903109359
S1131AF014092FBF8FB7F8949927379A8FBF8FB7E0
S1131B00F894C82FDD279C2F80910B028430A9F410
S1131B1080913903813021F482E00E940F0D09C0C5
S1131B20823059F48091140980930B0283E08093EE
S1131B303903CFBF80E090E01FC09FBFFBCF812F50
S1131B400E94FB0C882319F085E090E014C0E12F7B
S1131B50E695E695E695FF27E05CF74F177081E080
S1131B6090E002C0880F991F1A95E2F72081282B74
S1131B70208380E090E00FBFDF91CF911F910F9100
S1131B80089580915A03882319F081E090E0089524
S1131B9083E00E94660D9927282F882319F481E099
S1131BA080935A03822F99270895982F9695969596
S1131BB09695E9E4F7E0E90FF11D877021E030E044
S1131BC002C0220F331F8A95E2F78081822399276E
S1131BD008959FB7F894292F3327422F90910B0231
S1131BE0981741F480913903833021F42FBF81E0A9
S1131BF090E008954FBF80E090E0089583E00E9454
S1131C00E90D9927089580919C0C813041F0813031
S1131C1030F0823011F0833021F478E013C078E0A2
S1131C200FC0813049F0813038F0823039F0833090
S1131C3029F02FE170E007C070E002C070E002C03C
S1131C402EE101C021E0622FEFB7F8948091F406F1
S1131C508E7F8093F40687B1982F9F718295869525
S1131C608695837019F080E090E012C0822F88502E
S1131C70863118F081E090E00BC040E050E033275B
S1131C80892F99272817390711F441E050E0CA0138
S1131C90982F9170990F8091F4068178262F2F71D7
S1131CA0422F440F440F892B842B8093F40633274F
S1131CB027B9783059F58091920C9091930C21E0DA
S1131CC08638920718F087E090E01FC0833C9105A6
S1131CD018F086E090E019C08136910518F085E08F
S1131CE090E013C08033910518F084E090E00DC0BB
S1131CF08831910518F083E090E007C00C9718F044
S1131D0082E090E002C080E090E0782F7770887DD8
S1131D10872B886D992786B98E2F99278FBF0895B1
S1131D2082E08093C90783E080939C0C0E94030E99
S1131D3080E090E0089580915403882319F081E0B5
S1131D4090E0089582E00E94660D9927282F882349
S1131D5019F481E080935403822F99270895982FD2
S1131D60969596959695EEEBF6E0E90FF11D877042
S1131D7021E030E002C0220F331F8A95E2F7808110
S1131D80822399270895FC01892B31F0808182FFF9
S1131D9003C080899189089580E090E00895CF93ED
S1131DA0DF93EC010E94C30E9C012097C1F088814F
S1131DB082FF15C06E857F856115710581F021153F
S1131DC0310569F08AE090E0AC01249FC001259FB1
S1131DD0900D349F900D11240E94B25402C06FEFF5
S1131DE070E0CB01DF91CF91089590914E07992334
S1131DF019F4A0E0B0E01DC08091B605E82FFF27DC
S1131E00EE0FFF1FEC56F34FA081B18111821082B7
S1131E10915090934E078F5F8093B605843011F4F0
S1131E201092B605109729F081E0FD01858B148A84
S1131E30138ACD0108952F923F924F925F926F9231
S1131E407F928F929F92AF92BF92CF92DF92EF9246
S1131E50FF920F931F93CF93DF93CDB7DEB72997EC
S1131E600FB6F894DEBF0FBECDBF6FB76983F89489
S1131E702090820730908307409084075090850714
S1131E80662477248824EEE4AE2E73E8B72ECC249F
S1131E90DD24EE24FF2400E010E0222D332D442D18
S1131EA0552D662D772D882D90E00E94B34F2A83FF
S1131EB03B834C835D836E837F8388879987822EDF
S1131EC0932EA42EB52E2401350100E20E94B150B8
S1131ED0A22EB32EC42ED52EA3019201569547955A
S1131EE0379527952A0D3B1D4C1D5D1D57FF05C0D9
S1131EF05F772F5F3F4F4F4F5F4F209382073093A1
S1131F0083074093840750938507E9818E2F99278F
S1131F108FBFCA01B90129960FB6F894DEBF0FBE70
S1131F20CDBFDF91CF911F910F91FF90EF90DF9084
S1131F30CF90BF90AF909F908F907F906F905F9065
S1131F404F903F902F900895BC0140E050E0E0E4B2
S1131F50FBE09F01225030408081918186179707D2
S1131F6011F4C90108954F5F5F4F2C5E3F4F749683
S1131F704830510589F780E090E008952091DC070E
S1131F80222319F440E050E016C08091AE0CE82FF3
S1131F90FF27EE0FFF1FEC5CF24F4081518111824D
S1131FA0108221502093DC078F5F8093AE0C843025
S1131FB011F41092AE0CCA0108952091DD0722237A
S1131FC019F440E050E016C080918C07E82FFF27F9
S1131FD0EE0FFF1FE350F74F4081518111821082B1
S1131FE021502093DD078F5F80938C07843011F498
S1131FF010928C07CA010895AC012091DC072430AB
S113200018F081E090E008958091AE0C682F620F83
S1132010712D711DFB016430710508F03497EE0FCA
S1132020FF1FEC5CF24F518340832F5F2093DC074A
S113203080E090E00895AC012091DD07243018F091
S113204081E090E0089580918C07682F620F712DD4
S1132050711DFB016430710508F03497EE0FFF1F0A
S1132060E350F74F518340832F5F2093DD0780E0D7
S113207090E00895AC0120914903243018F081E0E8
S113208090E0089580914803E82FFF27EE0FFF1F8B
S1132090E05EF44F518340838F5F80934803843024
S11320A011F4109248032F5F2093490380E090E0DD
S11320B00895AC0120914E07243018F081E090E09F
S11320C008958091B605682F620F712D711DFB0173
S11320D06430710508F03497EE0FFF1FEC56F34F90
S11320E0518340832F5F20934E0780E090E0089552
S11320F0CF93DF93EC018881813059F0813038F03F
S1132100833019F08430B1F404C084E012C081E05B
S113211010C0EF81F88581E0848BEF81F885858993
S11321208150858B882321F48F8198850E945910D2
S113213082E08883DF91CF9108951F93982F8FB702
S1132140F894182F80914E038330B1F580911C02CE
S1132150891791F580911A0220E030E08F3F11F445
S113216021E030E0232BF9F48F3F19F42FEF30E016
S11321700EC0282F3327F901E655F34F8081809351
S11321801A028F3F11F480931B028FEF80832093F8
S113219070078FEF80931C0281E080934E0385E1EA
S11321A00E940F0D05C084E080931C0210924E0320
S11321B01FBF80E090E003C01FBF81E090E01F914B
S11321C008951F93982F1FB7F89480914F0382307E
S11321D099F580911F02891779F580911D0220E0FD
S11321E030E08F3F11F421E030E0232BF1F49FEF36
S11321F090931F028F3F19F42FEF30E00DC0282F6A
S11322003327F901EC5AF84F808180931D028F3FE8
S113221011F490931E0290832093BF0781E0809372
S11322204F0386E10E940F0D05C08FEF80931F02BC
S113223010924F0321E001C020E0812F99278FBF26
S113224090E0213009F491E081E09827892F9927C3
S11322501F910895813049F0813078F0823041F047
S1132260833049F060E070E008C060507E4F05C0E4
S113227060507D4F02C060507F4FCB010895982F6E
S11322804FB7F894552722B3277D22BB80E097FDF2
S1132290939A959A8299806822BB96FD939A959A0F
S11322A08299806422BB95FD939A959A8299806263
S11322B022BB94FD939A959A8299806122BB93FDE7
S11322C0939A959A8299886022BB92FD939A959AE3
S11322D08299846022BB91FD939A959A8299826037
S11322E022BB90FD939A959A829981604FBF99275A
S11322F00895EEECF0E06927660FF11DE60FF11D7D
S1132300C895982F802D3196C89590250895809171
S11323104703E82FFF27EE0FFF1FE05EF44F019005
S1132320F081E02D20914903222351F08F5F8093A7
S11323304703843011F4109247032150209349033A
S1132340CF010895CF93DF93FC01DC011196ED01D9
S113235029813327322F2227818199278062282BD4
S1132360392B2183232F3327298380E090E0DF91C9
S1132370CF910895E82F8FB7F894282F332790E052
S1132380FF27E55FF64F8081861709F491E02FBFA0
S1132390892F99270895282F9FB7F894662349F029
S11323A0E82FFF27E55FF64F8081882311F021E0B5
S11323B006C0E22FFF27E55FF64F608320E0892FF8
S11323C099278FBF822F99270895882311F06E9A39
S11323D008956E980895882311F06F9A08956F9860
S11323E0089580E00E94E511BA9ABB98B99A6C9A54
S11323F080E00E94EB11709A6B986A98689881E06B
S11324000E94E51108950F931F93CF93DF93182F24
S11324108FB7F894C82FDD270C2F61E080E00E946D
S1132420CB11882321F0CFBF85E090E024C08091B8
S11324300F028823A1F480913F03823081F409C004
S113244082E080933F0310920F020E94F111B89A28
S1132450C09810930C0280E00FBF99270CC08091A4
S11324603F03882369F38FB7F894992710920B09D7
S11324708FBF81E0F1CFDF91CF911F910F9108952C
S11324801F93182F81E00E94E5111FB9779BFECF9F
S11324908FB199271F9108958F929F92AF92BF9207
S11324A0CF92DF92EF92FF920F931F93CF93DF931C
S11324B08FB7F8949927C090B20CD090B30C809049
S11324C0BF089090C008C0912308D091240820919F
S11324D07F0530918005BAE0AB2EB12CAC0EBD1E49
S11324E02A153B0508F459018FBF7401EC0EFD1E3B
S11324F086010C0F1D1F14C0C114D10419F0F8017A
S1132500808101C080E00E9440128114910411F086
S1132510F701808321960894E11CF11C0F5F1F4F83
S1132520C5010197C817D90738F381E00E94EB1160
S11325309FB7F894C114D10431F0CC0EDD1EF6011E
S113254080818FB901C01FB8D0932408C093230899
S1132550892F99278FBF80E090E0DF91CF911F9161
S11325600F91FF90EF90DF90CF90BF90AF909F902E
S11325708F9008952FB7F894332750938005409394
S11325807F059093B30C8093B20C7093C008609352
S1132590BF0810922408109223082FBF452B29F05E
S11325A08FB10E944C12992708958BE00E940F0D61
S11325B080E090E008958FB7F894992710920F095E
S11325C08FBF08958FB7F894992710920D098FBF84
S11325D0089580E88093B5051092680710929D0CC9
S11325E01092900C10924B07089510923C03109295
S11325F03B03DE98DD98DE9A80E090E008958F92A8
S11326009F92AF92BF92CF92DF92EF92FF920F937D
S11326101F936B017C0149015A01261737074807AC
S1132620590770F49B01AC01281939094A095B095F
S1132630C801AA27BB2782179307A407B50738F553
S11326408C149D04AE04BF0470F0A50194012C19F0
S11326503D094E095F09C801AA27BB2782179307C2
S1132660A407B507A0F48C149D04AE04BF0490F431
S1132670C818D908EA08FB08C801AA27BB278C1583
S11326809D05AE05BF0530F482E090E005C081E011
S113269090E002C083E090E01F910F91FF90EF90D3
S11326A0DF90CF90BF90AF909F908F900895CF937D
S11326B0DF93EC01892B59F0888182FF08C0CE0199
S11326C00E94CF0E2C813D81280F391F02C02FEFAD
S11326D03FEFC901DF91CF91089522E830E0281B34
S11326E03109229FC001239F900D329F900D112428
S11326F043E0969587954A95E1F7AC01429FC00166
S1132700439F900D529F900D112423E09695879539
S11327102A95E1F70895EF920F931F93AE2D99E058
S1132720899FF0011124EF5BF74F4083518362834B
S113273073830483158326833783A17080858E7FFA
S11327408A2B8260808781E00E940F0D1F910F9178
S1132750EF9008957FB7F89462B720918505309182
S11327608605409187055091880506B601FE0FC085
S113277081B792B7280F311D411D511D2F5F3F4F67
S11327804F4F5F4F290F311D411D511D04C0260FAE
S1132790311D411D511D872F99278FBFCA01B901D2
S11327A00895AF92BF92CF92DF92EF92FF920F9370
S11327B01F93F82E5A016B010E94AA13AB01BC01AE
S11327C0E1E0EE2E960185018F2D0E948B131F915F
S11327D00F91FF90EF90DF90CF90BF90AF9008954E
S11327E09C01FB0109C0D9010E942F55802D8193C2
S11327F0415050402F5F3F4F41155105A1F780E0F4
S113280090E008959C01FB010BC08191B9016F5FB9
S11328107F4FD901082E0E943755415050409B01EB
S11328204115510591F7E199FECF80E090E00895BC
S11328309FB7F894292F3327422F90911F0298179E
S113284041F480914F03823021F42FBF81E090E066
S113285008954FBF80E090E008950E941B0F9B01F4
S1132860AC018091880881FD18C080E090E1A0E06F
S1132870B0E08093E0079093E107A093E207B09360
S1132880E307C90160E078E20E94B254AA27BB279B
S1132890AC01BD0187E00E94D1130895AC01809181
S11328A09B0790919C078617970781F48091A7074F
S11328B09091A8078417950749F48091A307833062
S11328C018F0EBE9F7E01FC0823050F18091A307C4
S11328D0823019F42BE937E002C020E030E0EBEA63
S11328E0F7E08091AB079091AC078617970781F4C6
S11328F08091B7079091B8078417950749F48091A0
S1132900B307833018F083E080870CC0823040F036
S11329108091B307823011F42BEA37E0F90102C049
S1132920E0E0F0E0CF010895CF93DF93FC01EE588F
S1132930FF4F1582DF011696ED011B821A82198260
S113294080E88683DF91CF9108958FB7F8946091E2
S11329502508709126082CB53DB506B602FE04C0C4
S11329606F5F7F4F2CB53DB599278FBF8827992777
S1132970CB017727662744275527622B732B842B9B
S1132980952B0895EF92FF920F931F930E94A51425
S11329907B018C012091BB073091BC074091BD079E
S11329A05091BE0780918E0790918F07A091900758
S11329B0B0919107820F931FA41FB51FE216F3066F
S11329C00407150730F082179307A407B50758F0DA
S11329D005C082179307A407B507E0F5E816F906C2
S11329E00A071B07B8F59C01AD012E193F09400BDE
S11329F0510B213060E8360760E0460760E0560777
S1132A0068F180E090E8A0E0B0E0E80EF91E0A1F4B
S1132A101B1FE092BB07F092BC070093BD07109305
S1132A20BE0780E090E8AFEFBFEFE80EF91E0A1F83
S1132A301B1F205030484040504020938E07309355
S1132A408F07409390075093910720E030E840E0CF
S1132A5050E014C020E030E040E050E08093BB0739
S1132A609093BC07A093BD07B093BE0710928E0746
S1132A7010928F071092900710929107A901B70145
S1132A802CB53DB5C9018E199F0903968417950786
S1132A9020F0B9016D5F7F4F02C0640F751F61158F
S1132AA0710511F461E070E0615070407BBD6ABD56
S1132AB080E186BF87B7806187BF1F910F91FF9028
S1132AC0EF9008950F931F930FB7F8941127609315
S1132AD0BB077093BC078093BD079093BE072093F8
S1132AE08E0730938F0740939007509391070E946D
S1132AF0C2140FBF1F910F910895CF92DF92EF92EE
S1132B00FF920F931F93CF93DF938C01F62E6A01EC
S1132B10E22E8FB7F894C82FDD2760E080E00E9492
S1132B20BA11882321F0CFBF80E090E01EC0CFBF50
S1132B300F0D111D802F80680E944012F82E1695EB
S1132B400795802F807C0E9440120E2D0AC0EE2D26
S1132B50FF27E01BF109EC0DFD1D80810E9440124E
S1132B6001500023A1F78F2D9927DF91CF911F9159
S1132B700F91FF90EF90DF90CF900895CF93DF9364
S1132B80CDB7DEB724970FB6F894DEBF0FBECDBF26
S1132B908FB7F894992720916C0730916D0729839A
S1132BA0232F33272A832091C0073091C1072B8319
S1132BB0232F33272C838FBF24E0AE014F5F5F4F59
S1132BC060E088E691E00E947D1524960FB6F894A3
S1132BD0DEBF0FBECDBFDF91CF91089597B79F7D24
S1132BE097BF90E296BF882319F08EB5806402C027
S1132BF08EB58F7B8EBD87B7806287BF80E090E003
S1132C000895E82F272F362F21153105D9F0882371
S1132C1049F08091220D9091230D82179307E1F0E2
S1132C20E13049F08091240D9091250D821793078E
S1132C3099F0E23039F08091260D9091270D82179A
S1132C40930751F0FF27EE0FFF1FEE5DF24F318324
S1132C50208380E090E0089581E090E0089591E081
S1132C609093C90780939C0C0E94030E80E090E02F
S1132C70089580913E0B82FD03C08FEF9FEF08956E
S1132C808EE39BE00E9457130895DF92EF92FF9228
S1132C900F931F938FB7F894282F3327D22E91B711
S1132CA082B746B7981711F041FF02C02FBF6AC020
S1132CB080911E088823E1F10E94AA13E09007097D
S1132CC0F09008090091090910910A092091B105B1
S1132CD03091B2054091B3055091B4056E197F0946
S1132CE0800B910B621773078407950720F01092ED
S1132CF01E0871E01EC02E0D3F1D401F511F809104
S1132D00850590918605A0918705B0918805281BBB
S1132D10390B4A0B5B0B273E31054105510540F445
S1132D20822F223010F070E005C070E082E002C013
S1132D3070E086EE682F615000B601FCFDCF82B7CB
S1132D40681709F46F5F20918505309186054091DD
S1132D50870550918805DA01C9010196A11DB11DAD
S1132D60860F911DA11DB11D82179307A407B507F6
S1132D7010F4622F609561BFDFBE772319F080E005
S1132D800E940F0D1F910F91FF90EF90DF90089517
S1132D90AFB7F894BB27E1E0E0931E0860930709FE
S1132DA0709308098093090990930A092093B10547
S1132DB03093B2054093B3055093B405AFBF0E945E
S1132DC0451608951F920F920FB60F9211248F93F8
S1132DD083B783BF00B600FCFDCF8F910F900FBE69
S1132DE00F901F9018951F920F920FB60F921124F7
S1132DF02F933F934F935F936F937F938F939F93FF
S1132E00AF93BF93EF93FF9344B155B178948FB7C9
S1132E10F89499272091F406322F36953170217059
S1132E208FBF222391F533988091C907813021F017
S1132E30823009F050C008C0332341F05093D408C5
S1132E404093D30883E01EC0332319F40E94030E79
S1132E5042C01092C90780919C0C823021F08330CB
S1132E6009F039C008C0109286075093EC064093CD
S1132E70EB068BE107C0109251075093A30C4093CB
S1132E80A20C80E20E940F0D26C08FB7F8949927F8
S1132E908FBF2FB7F894332786B1582F5770482F18
S1132EA04072987D942B952B8074977B982B90611E
S1132EB09F77892F992786B9887D842B852B8773E3
S1132EC08061992786B9887D842B852B877B8069CF
S1132ED0992786B92FBFFF91EF91BF91AF919F9131
S1132EE08F917F916F915F914F913F912F910F90AF
S1132EF00FBE0F901F90189578941F920F920FB6E3
S1132F000F9211240F900FBE0F901F901895789474
S1132F101F920F920FB60F9211240F900FBE0F90B5
S1132F201F90189578941F920F920FB60F92112448
S1132F302F933F938F939F932FB7F89433278091C8
S1132F4025089091260801969093260880932508D9
S1132F502FBF9F918F913F912F910F900FBE0F9094
S1132F601F9018951F920F920FB60F9211240F9075
S1132F700FBE0F901F9018951F920F920FB60F92CD
S1132F8011240F900FBE0F901F9018951F920F924F
S1132F900FB60F9211240F900FBE0F901F9018952B
S1132FA01F920F920FB60F9211240F900FBE0F9025
S1132FB01F9018951F920F920FB60F9211240F9025
S1132FC00FBE0F901F9018951F920F920FB60F927D
S1132FD011240F900FBE0F901F9018950F931F93FD
S1132FE08C0164E070E00C960E94380982E0F801DC
S1132FF08087158214821F910F910895CF92DF92DA
S1133000EF92FF920F931F93CF93DF93CDB7DEB769
S113301064970FB6F894DEBF0FBECDBF6C017B0181
S1133020009751F1672B41F144E150E0BC018E015E
S11330300F5F1F4FC8010E94410944E150E0B701EE
S1133040C6010E94410944E150E0B801C7010E9451
S1133050410980917E0790917F07C816D90629F40B
S1133060F0927F07E0927E0707C0E816F90621F484
S1133070D0927F07C0927E0764960FB6F894DEBFA5
S11330800FBECDBFDF91CF911F910F91FF90EF90B5
S1133090DF90CF9008950F931F938C012091060227
S11330A030910502309317012093160148E050E057
S11330B060E071E00E94410948E050E060E171E0A5
S11330C0C80108960E9441091F910F91089520910B
S11330D0060230910502309317012093160140E156
S11330E050E068E071E00E9441090895FC01808D80
S11330F08F3F39F4818D99278F709070039784F0F6
S113310014C08E3F91F4818D9927807F907081380F
S1133110910534F00AC0CF0108960E9467180895FB
S1133120CF0108960E944B18089580913403882398
S1133130B9F3F1CF2F923F924F925F926F927F92A9
S11331408F929F92AF92BF92CF92DF92EF92FF92B3
S11331500F931F93CF93DF93CDB7DEB72C970FB6A2
S1133160F894DEBF0FBECDBF18861F821A8619865B
S11331704C017E836D833A017A01EE0CFF1CEE0C48
S1133180FF1CE40EF51EC70107960E94CD0B8C01AF
S1133190009741F404C08B819C810E94020C44245A
S11331A05524ECC09C838B832C01E80EF91E25E08A
S11331B030E0E20EF31E82E0F7018183F8018083A0
S11331C0F282E182F40180819181F8019483838306
S11331D022243324A9C02D813E81232B09F09FC0D2
S11331E0222009F09CC0F401369684E080935F03AA
S11331F08AE080935E03808D8F3F39F4818D992717
S11332008F70907004970CF48AC08681813119F014
S11332108B3309F084C0808D918D8F5F924009F4C7
S11332207EC080912108882309F079C081E08093D1
S1133230210880913C0B90913D0B019690933D0B9E
S113324080933C0B01979F8388878F819885909307
S1133250610380936003E0917E07F0917F07FA8316
S1133260E983AA24BB242EE33BE03C872B875EE55D
S1133270C52E53E0D52E82E090E0C80ED91EEB8512
S1133280FC858081992782FF3DC0F4E0AF16B1042C
S1133290CCF584FD07C029813A818B859C8528174C
S11332A0390781F58B859C850E94CF0E8F3F910550
S11332B011F008F08FEFF60182838B859C850E94C4
S11332C0C30E8F3F910511F008F08FEFF601838351
S11332D0EB85FC85F381F987EB85FC85F281FA8720
S11332E029853A85F601358324830894A11CB11CF1
S11332F084E090E0C80ED91E80915F038C5FEEE5F8
S1133300F3E081832B853C852C5E3F4F3C872B87E4
S11333102E5D3B4009F0B3CF1A141B04B4F008949B
S1133320211C311C0B5F1F4F261437040CF453CFA0
S1133330F7018181823009F42ECFF4018485F701ED
S11333408083F4015182408219C0F70181819091F8
S11333505F03890F818380915F03F80185832EE5E4
S113336033E037832683C801059694838383F4016D
S113337080819181F80191878087D1CFC2012C96F9
S11333800FB6F894DEBF0FBECDBFDF91CF911F9172
S11333900F91FF90EF90DF90CF90BF90AF909F90F0
S11333A08F907F906F905F904F903F902F900895F3
S11333B0CF93DF93EC018885813061F0813038F060
S11333C0833019F0843081F405C084E001C081E0C9
S11333D088870AC08C819D81009711F00E94020C9D
S11333E082E088871D821C82DF91CF910895AF927D
S11333F0BF92CF92DF92EF92FF920F931F93CF93DE
S1133400DF936C015B018A01EE24FF2415C0F801EF
S11334108191C82FDD27AE01BF01C6010E94525120
S1133420892B29F4CC0DDD1D8881882359F008945B
S1133430E11CF11C055F1F4FEA14FB0444F37EEF0B
S1133440E72EF12CC701DF91CF911F910F91FF90CF
S1133450EF90DF90CF90BF90AF9008951F920F929E
S11334600FB60F9211242F933F934F935F936F9353
S11334707F938F939F93AF93BF93EF93FF9383B700
S113348083BF00B600FCFDCF81B799270196AA2718
S1133490BB27209185053091860540918705509181
S11334A08805280F391F4A1F5B1F20938505309319
S11334B08605409387055093880578940E944516A5
S11334C0FF91EF91BF91AF919F918F917F916F91F8
S11334D05F914F913F912F910F900FBE0F901F90CE
S11334E018951F938FB7F89499272091E30620939A
S11334F0310323E0209351038FBF1091310382E005
S11335000E94E90D882381F080915503882361F49A
S113351082E08093C90780939C0C0E94030E81E093
S1133520809355031093F2061F9108950F931F93F0
S1133530182F0FB7F89461E080E00E94CB11882324
S113354071F510930C0280910F028823A9F58091E4
S11335503F03823089F58AE00CC00E94F11180910A
S11335603F03882349F481E080933F0310924C0782
S11335708CE00E940F0D2AC0809198078F3F31F58F
S1133580E0910E02EE2311F11CC010920D0204C052
S1133590FF27E856F84F108210920E0217C081E000
S11335A090E002C0880F991F1A95E2F720913E031C
S11335B0282B20933E030AC080913F038823E1F621
S11335C0CCCF80910D028F3F19F7DFCF802F992741
S11335D08FBF80E090E01F910F9108951F9383E0C7
S11335E00E9403129927182F882319F083E00E9460
S11335F0961A812F99271F9108951F938FB7F894D6
S1133600282F3327122F80911C0D882321F02FBFE0
S113361081E090E013C081E080931C0D80913B0316
S113362090913C03049721F481E00E94961A03C010
S113363088E00E940F0D1FBF80E090E01F91089565
S1133640CF93DF93982F8FB7F894282F3327422FE7
S113365080914E03882331F581E080934E0390934B
S113366070072FBF8FB7F894C82FDD279C2F809148
S11336701C02843099F480914E03813021F485E159
S11336800E940F0D09C0823049F480917007809325
S11336901C0283E080934E03CFBF01C09FBF80E034
S11336A090E021C0E92FFF27E655F34F80818F3F3B
S11336B089F4E0911B02E91789F40CC090931A0273
S11336C004C0FF27E655F34F908390931B0280E0DC
S11336D090E002C085E090E04FBF05C080911A02DF
S11336E08F3F79F7EBCFDF91CF910895CF92DF929F
S11336F0EF92FF920F931F93CF93DF93782FC62FF0
S1133700DD278BE090E0C89FF001C99FF00DD89FA2
S1133710F00D1124EC51F84F8081882319F085E0D5
S113372090E048C0643018F480E091E002C080E08A
S113373090E0AA27BB27BA2FA92F982F8827821792
S11337409307A407B507A0F1821B930BA40BB50B39
S11337508C159D05AE05BF0558F18BE090E0C89F20
S1133760F001C99FF00DD89FF00D1124EC51F84FD2
S113377070832383348345835683C782D086E1864E
S1133780F28612830183613069F0613028F062307F
S113379059F0633059F003C080E00E94201B80E0A0
S11337A090E008C081E0F9CF82E0F7CF83E0F5CF65
S11337B086E090E0DF91CF911F910F91FF90EF9001
S11337C0DF90CF900895BF92CF92DF92EF92FF9255
S11337D00F931F93B82EF70180914C03882319F09F
S11337E085E090E056C087E0B81609F44BC08B150D
S11337F050F083E0B81609F445C08B1510F081E051
S113380008C085E006C08BE0B816E1F18B1530F0F6
S113381089E0B81611F18B1538F12DC08DE0B8167A
S1133820E1F0B81640F18EE0B816F1F08FE0B8166A
S113383081F428C085E00E94761B9927282F8823CD
S113384049F481E080934C03B092B40C80E090E0A2
S113385020C021E0822F99271CC0680179018F01C3
S11338609A01AB0161E0E6CF680179018F019A0109
S1133870AB0162E0DFCF680179018F019A01AB01EE
S113388060E0D8CF680179018F019A01AB0163E050
S1133890D1CF1F910F91FF90EF90DF90CF90BF9009
S11338A00895BF92CF92DF92EF92FF920F931F93EE
S11338B0B82E6701780180914C03882319F085E0C4
S11338C090E04EC087E0B81609F445C08B1550F05F
S11338D083E0B81609F43FC08B1510F081E008C0EE
S11338E085E006C08BE0B816B1F18B1530F089E0A5
S11338F0B81611F18B1528F129C08DE0B816E1F046
S1133900B81620F18EE0B816E1F08FE0B81681F415
S113391022C081E00E94761B9927282F882349F42E
S113392081E080934C03B092B40C80E090E018C026
S113393021E0822F992714C089019A01AB0161E02B
S1133940E8CF89019A01AB0162E0E3CF89019A01D2
S1133950AB0160E0DECF89019A01AB0163E0D9CF0E
S11339601F910F91FF90EF90DF90CF90BF9008953B
S1133970BF92CF92DF92EF92FF920F931F93B82ED4
S11339806701780180914C03882319F085E090E069
S11339904EC087E0B81609F445C08B1550F083E09B
S11339A0B81609F43FC08B1510F081E008C085E01B
S11339B006C08BE0B816B1F18B1530F089E0B8166B
S11339C011F18B1528F129C08DE0B816E1F0B81675
S11339D020F18EE0B816E1F08FE0B81681F422C031
S11339E084E00E94761B9927282F882349F481E0DC
S11339F080934C03B092B40C80E090E018C021E0B6
S1133A00822F992714C089019A01AB0161E0E8CFA4
S1133A1089019A01AB0162E0E3CF89019A01AB010C
S1133A2060E0DECF89019A01AB0163E0D9CF1F9139
S1133A300F91FF90EF90DF90CF90BF900895EF9299
S1133A40FF920F931F93813051F0813030F0823018
S1133A5041F0833041F081E009C088E005C08BE08B
S1133A6003C089E001C08AE00E94B81C99271F9115
S1133A700F91FF90EF900895EF92FF920F931F9391
S1133A8080912208843090F410929E05F4E5EF2E84
S1133A90F12C012D112D25EF36E040E050E060E0DF
S1133AA070E0809172070E941F1D03C083E0809321
S1133AB09E051F910F91FF90EF90089580919E05B0
S1133AC0823019F0833071F4FBCFE0912208EF5F6C
S1133AD0E0932208FF27E95FFD4F808180937207FE
S1133AE00E943C1D0895EF92FF920F931F93982F0D
S1133AF0E62F80919E05833019F081E090E019C093
S1133B009093E00BA4E5EA2EF12C012D112D25EF65
S1133B1036E040E050E060E070E08E2F0E941F1D10
S1133B20882311F494E002C090919E0590939E0521
S1133B3099271F910F91FF90EF900895EF92FF92B4
S1133B400F931F93CF93DF93982F8FB7F894E82E9A
S1133B5080913903833009F045C080910B028917A5
S1133B6009F040C080914008882309F046C03EC057
S1133B70EF2DE695E695E695FF274F2D5527E05C5A
S1133B80F74F9A012770307081E090E002C0880FEF
S1133B90991F2A95E2F78095208128232083C093DA
S1133BA0380311C02196C430D10511F4C0E0D0E02F
S1133BB0FC2E8C2F0E94FB0C8823D1F6C017D10752
S1133BC089F74FEF50E0409314098FEF80930B0275
S1133BD081E08093390382E00E940F0DEFBE80E004
S1133BE090E011C0EFBE81E090E00DC084E08093CE
S1133BF00B02109239033798F1CF80913803082FC4
S1133C001127E801CFCFDF91CF911F910F91FF9042
S1133C10EF90089582E00E949E1D109254038091BB
S1133C205303813011F40E949B0E8FB7F8949927A7
S1133C3010925303109252038FBF08952FB7F89434
S1133C40332780914C0780930F0282E080933F03D7
S1133C502FBF80910F02882329F4B89AC0988AE074
S1133C600E940F0D0895CF92DF92EF92FF920F936F
S1133C701F9380934D036093E10BC901880F892F33
S1133C80881F990B91958093E20B220F812F99271E
S1133C90282B2093E30B0093E40BD092C208C0922C
S1133CA0C108F0929A07E092990740938D0784E146
S1133CB00E940F0D1F910F91FF90EF90DF90CF9016
S1133CC008951F920F920FB60F9211242F933F93D2
S1133CD04F935F936F937F938F939F93AF93BF9310
S1133CE0EF93FF9389B78B7F89BF83E10E940F0D08
S1133CF0FF91EF91BF91AF919F918F917F916F91C0
S1133D005F914F913F912F910F900FBE0F901F9095
S1133D101895CF93DF9380910509882309F0A4C0F7
S1133D2080911602882309F09FC090E08091490396
S1133D30882309F491E0992309F096C0E0914703A0
S1133D40FF27EE0FFF1FE05EF44FC081D181A881F1
S1133D50B981FD0186858F70E82FFF27EE0FFF1FC5
S1133D60EA0FFB1F80819181EA81FB818683892F81
S1133D7099278783E881F98187859927EA81FB81DF
S1133D80EE58FF4F85871486E881F98181899289ED
S1133D90EA81FB81EE58FF4F8787892F9927868711
S1133DA0E881F9818489882309F03AC0EA81FB819A
S1133DB04081578126818091450390914603892B48
S1133DC079F5852F9927982F88273327822B932BD2
S1133DD090936B0780936A07F0934603E09345033F
S1133DE04B504093B9068EE00E940F0D8FB7F894A4
S1133DF0282F3327922F80914F078F3F21F4E09192
S1133E001502EE2349F52FBF2CC01092140204C0F2
S1133E10FF27E15BF84F1082109215029FBF21C06B
S1133E2080E10E940F0DE881F98181E0848BE881B3
S1133E30F98185898150858B882321F48881998132
S1133E400E9459108A819B810E941B10CE010E94FE
S1133E50FC0F0E94871108C0809114028F3FC1F6A5
S1133E60D4CF81E080930509DF91CF9108951F930A
S1133E70CF93DF93182F8FB7F894C82FDD2760E016
S1133E8080E00E94BA11882321F0CFBF80E090E047
S1133E9005C0CFBF812F0E9440129927DF91CF9197
S1133EA01F910895EF92FF920F931F93CF93DF9387
S1133EB0182F7B01042F8FB7F894C82FDD2760E0FB
S1133EC080E00E94BA11882321F0CFBF80E090E007
S1133ED014C0CFBF1064812F99279093C507809396
S1133EE0C4070E944012182F402F5527B70180E0C5
S1133EF090E00E94BA12812F9927DF91CF911F91F0
S1133F000F91FF90EF900895C0986091770570919C
S1133F10780541E08FE30E94521F089582E090E00B
S1133F209093E2068093E10681E08093680720E0A5
S1133F3030E080910C02843011F421E030E0232B36
S1133F4029F484E00E940312882319F40E94841F38
S1133F50089584E00E94961A08951F920F920FB656
S1133F600F9211242F933F934F935F936F937F93FB
S1133F708F939F93AF93BF93EF93FF938091E10649
S1133F809091E206019749F482E090E09093E20672
S1133F908093E1060E948E1F05C080914B078F5FBE
S1133FA080934B07FF91EF91BF91AF919F918F91B8
S1133FB07F916F915F914F913F912F910F900FBE21
S1133FC00F901F9018951F9380913E03882309F04A
S1133FD04BC010910C021F3F09F046C060E00E94E4
S1133FE0BA11882309F440C081E080931E0B8091AC
S1133FF0BF068823E1F110921E0B85E090E045C0D6
S1134000923069F5C09A80910D0220E030E08F3F34
S113401011F421E030E0232BE9F410930F028F3FD9
S113402019F42FEF30E00DC0282F3327F901E8569B
S1134030F84F808180930D028F3F11F410930E028C
S1134040108320934C0781E080933F038CE00E940F
S11340500F0D05C010930F0210923F0311C0809101
S11340603F03882369F00FC081E090E00EC0809187
S11340700F0290913F03882319F2923021F0EFCF81
S113408080E00E94E51180E090E01F9108951F9365
S1134090CF93DF939FB7F894C92FDD271C2F9091FE
S11340A00C02981721F0CFBF81E090E03AC08FEF67
S11340B080930C0230913E033323F1F48FB7F894CC
S11340C0992710920B098FBF0E94E31FCFBF11C025
S11340D020930C0281E090E002C0880F991F4A955A
S11340E0E2F78095382330933E038AE00E940F0D57
S11340F01FBF80E090E015C080E065E0E32FFF275C
S11341000E94A654292F492F5527CF01042E02C0FF
S1134110959587950A94E2F780FDDACF822F8F5F19
S1134120EFCFDF91CF911F9108951F93CF93DF932A
S11341308FB7F894C82FDD271C2F8091E10690914A
S1134140E206892B29F484E00E944720CFBF1EC0D9
S11341501092680780914B07882311F0B79904C027
S11341600E9908C0882319F0815080934B070E9450
S11341708E1F0BC081E090E09093E2068093E106ED
S113418010924B0784E00E9447201FBFDF91CF911C
S11341901F9108950E94E912C09AC09888E00E9475
S11341A0371F88E00E94371FC09A84E00E9447208E
S11341B00E9495200895FF920F931F93CF93DF934E
S11341C0F82E8B018FB7F894C82FDD2760E080E0CC
S11341D00E94BA11882321F0CFBF80E090E00CC088
S11341E0CFBF8F2D0E944012812F99270E94401229
S11341F0802F0E9440129927DF91CF911F910F9138
S1134200FF9008951F931FB7F89480914A0788235D
S113421019F460E070E009C060E08091B10C88237B
S113422009F461E081E0682777278091710788238A
S113423019F480E090E00AC090E08091130988238B
S113424009F491E081E09827892F9927762F662732
S1134250770F770F770F34E0880F991F3A95E1F7BE
S1134260826E9262682B792B81E10E94DB20812F80
S113427099278FBF1F9108958FB7F894992760915C
S113428015098FBF85E0689FB0011124625D7E4FE0
S1134290706488E10E94DB2008951F938FB7F8941F
S11342A0282F332780913D03882311F02FBF30C07E
S11342B02FBF80B3992756E0969587955A95E1F7D5
S11342C0182F11709091C2078091C3078917D9F0F4
S11342D01917C9F484E090E090933C0380933B0366
S11342E08FB7F894992721E020933D038FBF60E0B6
S11342F070E08DE10E94DB200E94BE15C09AC09838
S113430084E00E940F0D1093C30789E00E940F0DF3
S11343101F910895FF920F931F93CF93DF93C09142
S11343207307D0917407CE58DF4F8A81C257D040AB
S11343309927182F882309F41FE1C0988091F30668
S1134340811749F0612F77276F717070606E706804
S113435085E10E94DB201093F306F8808FB7F89470
S1134360082F112760E080E00E94BA11882311F021
S11343700FBF12C00FBF8EE390E09093C5078093E8
S1134380C4078EE30E944012FA944F2D552760E033
S113439070E0CE010E94BA12DF91CF911F910F916C
S11343A0FF900895EF92FF921F93CF93DF93EC0158
S11343B0162F8FB7F894E82EFF2462E081E00E9464
S11343C0BA11882321F4EFBE81E090E056C0DE01EB
S11343D0AE58BF4F8FB7F894992724E020930C0967
S11343E08FBFD093DF07C093DE07EFBE135FFE01DC
S11343F011938981992780729070898311828981B0
S11344009927816498688983892F99278183FD017D
S113441014821C92118211861086178280E886838A
S113442061E0609310094091DE075091DF078FB778
S1134430F894282F332780914003909141038830CA
S1134440910511F0019711F02FBF15C082E090E0A3
S113445090934103809340036093280D5093740715
S113446040937307109283052FBF0E94EE1A88238E
S113447011F40E948A2180E090E0DF91CF911F9196
S1134480FF90EF9008951F93CF93DF93EC01162FC5
S113449061E082E00E94CB11882319F085E090E06E
S11344A03EC080911F0B8F5F80931F0B81508B83C5
S11344B061E084E00E94CB11882311F015E02BC049
S11344C0D0938107C09380071093270810923B0B69
S11344D010923A0BFE01EE58FF4F84859927982FCE
S11344E0882725853327822B932B892B19F0CE011E
S11344F00E94A211612FCE010E94D2219927182F68
S1134500882311F410E009C00E94DB12812F99273F
S1134510182F882311F00E94E212812F9927DF912E
S1134520CF911F910895FB018683892F9927878353
S11345302FB7F894332780916C0790916D072FBFA4
S11345408483892F992785832FB7F8943327809103
S1134550C0079091C1072FBF8087892F9927818732
S11345604250642FCF010E94432299270895BF929D
S1134570CF92DF92EF92FF920F931F93B82E809108
S11345808905882339F085E080934D0384E10E94F6
S11345900F0D1DC08B2D9927FC01EE0FFF1FE80F97
S11345A0F91FEB51F94F20813181BB2011F461E6F1
S11345B001C060E641E0C42ED12CEE24FF2400E0CB
S11345C010E040E08AE00E94331EB0922B081F9155
S11345D00F91FF90EF90DF90CF90BF900895CF920E
S11345E0DF92EF92FF920F931F93809189058823A6
S11345F039F085E080934D0384E10E940F0D29C0BA
S113460040912C08842F9927FC01EE0FFF1FE80F1F
S1134610F91FDF01AB51B94F2D913C91E951F94F8D
S1134620808182FF06C0442311F068E807C069E86E
S113463005C0442311F063E801C066E871E0C72EA9
S1134640D12CEE24FF2400E010E040E089E00E9439
S1134650331E1F910F91FF90EF90DF90CF9008953C
S11346601F93182F81E090E09093410380934003BF
S11346701092BF060E94E31F8FB7F89499271093F6
S11346803A038FBF86E00E940F0D1F9108950F9388
S11346901F930FB7F894112710924103109240030F
S11346A087B78F7E87BF87B78F7D87BF83E00E94E0
S11346B04720C09A0FBF0FB7F89411271092E20653
S11346C01092E1060E94E912C09A89B78F7B89BFD4
S11346D00FBF80E090E01F910F910895CF92DF9279
S11346E0EF92FF920F931F93CFB6F894DD240E94AC
S11346F01B0FDC01CB0166E470E00E94B254BBE006
S1134700EB2EF12CE80EF91EF0921B0DE0921A0D1F
S11347100E94A51400271127A80197010E94621581
S1134720CFBE1F910F91FF90EF90DF90CF9008952F
S113473080E092E0A0E0B0E080931A0890931B0818
S1134740A0931C08B0931D080E941B0F9B01A90194
S11347506627772751706070707040505E4F6F4FBE
S11347607F4F40931A0850931B0860931C08709362
S11347701D0880919A0881FF03C08D7F80939A0859
S11347801092210889E00E94D1130895EF92FF92BC
S11347900F931F93CF93DF93EC0188818B7F8883E2
S11347A0E0907E07F0907F0764E170E0CE010E9404
S11347B03809FE010BC08F010C5E1F4F848982FFF4
S11347C009C0B801CF010E94FE17F8018BE0EA3C52
S11347D0F80788F3CE15DF0561F40E9498238EE371
S11347E09BE090937F0780937E071092FC081092C1
S11347F0FB08DF91CF911F910F91FF90EF900895E7
S11348000E941B0F9B01AC0180917F0881FD18C0A1
S113481080E090E1A0E0B0E080939E0C90939F0C28
S1134820A093A00CB093A10CC90160E078E20E94AF
S1134830B254AA27BB27AC01BD0186E00E94D11364
S11348400895CF93DF93CEE3DBE018826CE070E051
S1134850CE0108960E94380964968BE0CE3DD807B5
S1134860A1F78091B50C882329F40E94002481E0EB
S11348708093B50C1092FC081092FB088EE39BE029
S113488090937F0780937E078FEF9FEF909353075A
S1134890809352078FEF8093B00C109221080E94EE
S11348A09823DF91CF910895FF920F931F93F82ED1
S11348B001E040917E0750917F072091420B309197
S11348C0430B60913F0BE2E5FBE010E0808182FF47
S11348D014C0E417F50761F0002321F081818617E5
S11348E030F006C0848195818217930708F41F5F16
S11348F074968BE0EE3DF80749F7112389F10E9485
S11349001B0FDC01CB01612F77270E94B254282FA3
S113491060917E0770917F074091420B5091430B49
S113492030913F0BE2E5FBE0E617F707A1F0002327
S113493021F08181831730F00EC084819581841722
S1134940950748F4222311F0215005C0F0937F0706
S1134950E0937E0711C074968BE0EE3DF80721F7D3
S1134960FF2021F0002311F000E0A3CF8EE39BE0B1
S113497090937F0780937E071092FC081092FB08A7
S11349801F910F91FF9008956F927F928F929F9243
S1134990AF92BF92CF92DF92EF92FF920F931F9349
S11349A0CF93DF938C017B01E90185E08F870E941F
S11349B01B0F9B01AC018FE090E0B9010E94B2543F
S11349C00F969A8B898B1E86E114F104E1F0F701AE
S11349D08281877FC1F48381882309F4AEC0F70103
S11349E09181E92FFF273497F695E795E81BF109A4
S11349F0EE0FFF1FEE0DFF1DC580D480D982C88243
S1134A0080E18E872AC0F801808D8F3F91F4818DDB
S1134A1099278F709070049764F48FEF9FEF9983B8
S1134A2088838E858F7080618E871F861A8A198A83
S1134A3011C060E071E0C80148960E9431048823E7
S1134A4061F0F801A7A0B6A0B982A8828E858F7004
S1134A5080618E8780E090E072C0F80187A096A004
S1134A60C4010E94A40F892BA9F08E8582958F70B2
S1134A70A82FBB27AA0FBB1FAC0FBD1FF80167A04F
S1134A8076A06D927C928F5F8295807F9E859F70C9
S1134A90982B9E87E0917E07F0917F07808182FFAB
S1134AA01AC02281338121153105A9F08E858295A2
S1134AB08F70E82FFF27EE0FFF1FEC0FFD1F3183D0
S1134AC020838F5F8295807F9E859F70982B9E8721
S1134AD0AEE3BBE021C0109221082FC08C9182FF6D
S1134AE01AC080917E0790917F07A817B90799F0A3
S1134AF0FD0182819381009771F0440F551F4C0F83
S1134B005D1FFA01918380833F5F3295307F8E85EC
S1134B108F70832B8E8754962E85322F32953F705B
S1134B20432F55274330510524F4FBE0AE3DBF0726
S1134B30A9F680E090E0207F11F481E090E0DF911D
S1134B40CF911F910F91FF90EF90DF90CF90BF9086
S1134B50AF909F908F907F906F900895AF92BF9287
S1134B60CF92DF92EF92FF920F931F93CF93DF9335
S1134B70CDB7DEB724970FB6F894DEBF0FBECDBF16
S1134B80182F7B01FB01848780911602882319F07A
S1134B9084E090E0E0C0FB0185858F3F69F080915F
S1134BA03E0B82FD03C080EF90E004C080913F0B78
S1134BB08F5F9927F701858764E070E0C701069647
S1134BC00E94380980E6F7018683809144038F5F51
S1134BD08093440310921209109211091092210D2E
S1134BE01092200D1487212F332741E050E060E01C
S1134BF070E0C7010E949A189093210D8093200DB4
S1134C00892B19F08CE3F7018487F7012485332776
S1134C1041E050E061E070E0C7010E949A1890936F
S1134C20120980931109892B11F0F7011486F701F9
S1134C30228133810190F081E02D06C08081280F0C
S1134C40311D0380F481E02D3097C1F7C32ED22E9D
S1134C50F701D386C2861C821B820E94F50E5C017A
S1134C60892B49F417E05DC0C8010E941B10C601DE
S1134C700E94FC0F49C080914403F501868B950185
S1134C8040E050E060E070E0C70106960E94C42452
S1134C908823D1F52FC00115110571F4C6010E94B6
S1134CA0FC0F06C00115110519F0C8010E941B1064
S1134CB081E0F501848B28C0A801465F5F4F28E698
S1134CC030E0BE016F5F7F4FC7010E944E09882309
S1134CD059F2855FD8018C93F60113830283B18264
S1134CE0A082C6010E943A10882371F4F5018589D7
S1134CF08F5F858B0E94BE0F6C010E94DD0F8C01BB
S1134D00C114D10441F6CECFF50185898150858B3C
S1134D10882319F4C5010E94591080E10E940F0DE7
S1134D2010E08091200D9091210D009711F00E94C8
S1134D30020C8091110990911209009711F00E94C0
S1134D40020C10921209109211091092210D109266
S1134D50200D812F992724960FB6F894DEBF0FBE3D
S1134D60CDBFDF91CF911F910F91FF90EF90DF9016
S1134D70CF90BF90AF900895BC018AE30E94AE2506
S1134D80992708954F925F926F927F929F92AF926C
S1134D90BF92CF92DF92EF92FF920F931F93CF9324
S1134DA0DF93982E5B012A0139018BE390E00E9486
S1134DB0CD0BEC01009719F487E090E0BCC00EE243
S1134DC0E02EF12CE80EF91E6EE270E00E94380924
S1134DD068E070E0C7010E943809B5016E5F7F4F3B
S1134DE040E150E0CE014E960E944109CE01069664
S1134DF00E947618A92DBB27FD01EE0FFF1FEE5D63
S1134E00F24F80819181892B79F5809117029091DD
S1134E10180227EC8035920718F020E537EC03C020
S1134E209C012F5F3F4F092F182F309318022093B6
S1134E30170263C087EC2035380718F020E537ECFB
S1134E4002C02F5F3F4F032F122F57C03093180219
S1134E5020931702FD01EE0FFF1FEE5DF24F318329
S1134E602083232B09F462C09701285F3F4FAA0FC8
S1134E70BB1FAE5DB24F8D919C91D7018D939C93D6
S1134E80F50180819181F70193838283C3010896A0
S1134E90C92ED82ED582C4821782168288E08087D4
S1134EA0F901F282E18214821382398328837B829E
S1134EB06A825D824C82F701848195819B878A870F
S1134EC061E1CE010E94230B8C0161E1CE010E94BD
S1134ED0230B102F0027892F9927082B192BF70153
S1134EE017830683BE0181E10E94AE25182FCE01EF
S1134EF00E94020C812F99271EC08091220D90914F
S1134F00230D8017910709F495CF8091240D90917A
S1134F10250D8017910709F48DCF8091260D90916E
S1134F20270D8017910709F091CF84CFCE010E94FD
S1134F30020C81E090E0DF91CF911F910F91FF90DF
S1134F40EF90DF90CF90BF90AF909F907F906F9045
S1134F505F904F90089580918405813081F460932F
S1134F60920726E030E042E957E06FE975E080E01F
S1134F700E94C2261092840580E00E94E1100895E8
S1134F80813049F0813028F0823039F0833061F487
S1134F9008C080E003C082E001C083E00E94AB2728
S1134FA0089581E00E94AB270895AF92BF92CF92FB
S1134FB0DF92EF92FF920F931F93CF93DF931092A0
S1134FC05503C090EB06D090EC06A0908607B090F5
S1134FD0F2068FB7F894E82E80915103833009F0DC
S1134FE040C0809131038B15E1F58091BE06882382
S1134FF009F087C07DC0EF2DE695E695E695FF277D
S11350004F2D5527E254F94F9A012770307081E0F3
S113501090E002C0880F991F2A95E2F780952081BD
S113502028232083C093500311C02196C130D10599
S113503011F4C0E0D0E0FC2E8C2F0E94AF0E882328
S1135040D1F6C017D10789F74FEF50E04093E3063C
S11350508FEF8093310381E08093510387E10E94B5
S11350600F0DEFBEBB2009F052C0AA2009F04FC0BB
S1135070D0921708C0921608C0922F0D8D2D992733
S113508080932E0D80912A0880932B0D8091A80C7B
S11350909091A90C80932D0D892F992780932C0D25
S11350A080918105909182058093330D892F9927F2
S11350B08093320D6FE278E088E191E00E947303FF
S11350C084E092ED90932E0880932D082BE030E03D
S11350D049E25DE06DE278E082E00E94C226882326
S11350E0B1F410922A0810928205109281050FC023
S11350F081E080933103109251038093520389E13C
S1135100AECF80915003082F1127E8018ECFDF9195
S1135110CF911F910F91FF90EF90DF90CF90BF90B0
S1135120AF900895CF9280918405813019F58091D4
S1135130F9089091FA08069628173907D9F480E0FF
S11351400E94E110E091F908F091FA08C0824091C0
S1135150F9085091FA0826E430E06FE975E080E040
S11351600E94C2268091F9089091FA080E94020CCC
S113517010928405CF900895AF92BF92CF92DF92A0
S1135180EF92FF920F931F93CF93DF935C0182E022
S1135190A816B104ECF17B0151E0C52ED12C09E332
S11351A016E0E701EA81FB81EF0109900020E9F7AD
S11351B02197CE1BDF0B82E090E0E80EF91ECE01B2
S11351C088539640800F911F813891058CF4AE016D
S11351D0BF01C8010E944109F801EC0FFD1F80E2E4
S11351E081938F010894C11CD11CCA14DB04C9F635
S11351F08AE0E8018A938E010F5F1F4F095316401E
S1135200980149E356E068E27BE081E00E94C2260F
S1135210DF91CF911F910F91FF90EF90DF90CF908E
S1135220BF90AF900895CF93DF93A0915702B091B0
S11352305802FD0101900020E9F73197EA1BFB0BAE
S11352409F01AD0168E27BE081E00E94C22661E239
S113525071E089E396E00E94665180913C0D482FED
S11352605527CA0104968D3791056CF46DE37DE0F2
S11352708CE396E00E94410980913C0DA82FBB2746
S1135280A45CB94F09C08EE280933C0680933D062E
S113529080933E06AFE3B6E0FD018DE581938AE09D
S11352A0ED018983E853F6409F0149E356E068E243
S11352B07BE081E00E94C226DF91CF910895A09106
S11352C0EE02B091EF02FD0101900020E9F7319761
S11352D0EA1BFB0B9F01AD0168E27BE081E00E94C9
S11352E0C2260895AF92BF92CF92DF92EF92FF92BF
S11352F00F931F93CF93DF93682FE90180919E054D
S1135300813009F477C1813008F41AC1843009F07E
S1135310B4C183E080939E058091E00B882309F05B
S1135320ACC110923906CC2009F0D6C0EA80FF2423
S113533000271127102F0F2DFE2CEE242881332750
S113534044275527522F4427332722278981992719
S1135350AA27BB27DC0199278827282B392B4A2B1E
S11353605B2B8B819927AA27BB27282B392B4A2B08
S11353705B2BE22AF32A042B152B4FEFE4164FEF95
S1135380F4064FEF04074FEF140709F4A5C0FE011C
S1135390E45BFF4F20818181E280C380FE0134966B
S11353A0BC80A180D280E381613049F0613050F04B
S11353B0623059F0633059F462E070E008C063E091
S11353C070E005C060E070E002C061E070E0FF24BE
S11353D000271127102F0F2DFE2CEE2433274427EE
S11353E05527522F4427332722279927AA27BB273B
S11353F0DC0199278827282B392B4A2B5B2B8C2DF2
S11354009927AA27BB27282B392B4A2B5B2BE22A67
S1135410F32A042B152B1F930F93FF92EF92EC9614
S1135420DF93CF936097DF93CF936097DF93CF930E
S11354306097DF93CF93ED2CFF2400271127102FC3
S11354400F2DFE2CEE242B2D332744275527522FC6
S11354504427332722278A2D9927AA27BB27DC0133
S113546099278827282B392B4A2B5B2B8E2F99279A
S1135470AA27BB27282B392B4A2B5B2BE22AF32A9A
S1135480042B152B1F930F93FF92EF92862F9927CE
S11354909F938F9385E291E09F938F9380E890E0B0
S11354A09F938F9309E316E01F930F930E948451F7
S11354B0209176052F5F209376059C01A80168E270
S11354C07BE081E00E94C2268DB79EB748960FB656
S11354D0F8949EBF0FBE8DBFE091C807EF5FE093C5
S11354E0C807E43048F4FF27E95FFD4F6081772760
S11354F080E00E94731DC1C08091760599279F9317
S11355008F938BE791E09F938F9380E890E09F9334
S11355108F9309E316E01F930F930E9484519C011B
S1135520A80168E27BE081E00E94C2264DB75EB725
S1135530485F5F4F0FB6F8945EBF0FBE4DBF9DC06E
S1135540CC2009F09AC0E090F706FF240027112729
S1135550102F0F2DFE2CEE242091F506332744271F
S11355605527522F4427332722278091F60699275F
S1135570AA27BB27DC0199278827282B392B4A2BFC
S11355805B2B8091F8069927AA27BB27282B392B58
S11355904A2B5B2BE22AF32A042B152B5FEFE5162B
S11355A05FEFF5065FEF05075FEF1507A9F01092AF
S11355B04D0781E080939E0562E0E62EF12C012DDB
S11355C0112D2AEB36E040E850E060E070E0809175
S11355D072070E941F1D51C0E0912208EF5FE09303
S11355E02208FF27E95FFD4F8081809372070E94A4
S11355F03C1D43C082E080939E0580914D0799270E
S113560020E534E0AC01429FC001439F900D529FBE
S1135610900D112480589E4FAC01662757FD60956C
S1135620762F80917207813079F0813028F08230B2
S113563099F0833011F518C0EE24FF2400E514E03E
S113564020E030E088E017C0EE24FF2400E514E0F9
S113565020E030E08BE00FC0EE24FF2400E514E0EE
S113566020E030E089E007C0EE24FF2400E514E0E8
S113567020E030E08AE00E94E31BDF91CF911F918C
S11356800F91FF90EF90DF90CF90BF90AF9008956F
S1135690CF92EF92FF920F931F938730D1F088300F
S11356A038F4853081F0863090F48430E9F409C010
S11356B0893099F0893078F08A3089F08B30A1F400
S11356C010C080E001C082E00E9492280DC083E0F7
S11356D0FBCF81E0F9CF80E005C082E003C083E026
S11356E001C081E00E9472291F910F91FF90EF90F9
S11356F0CF900895CF92DF92EF92FF920F931F9372
S1135700982F80914C03882319F085E090E064C0C1
S1135710973009F456C0983078F4933009F451C0A6
S1135720943028F4913061F19230A8F53FC095305F
S113573039F1963080F53AC09B3009F442C09C3070
S113574028F49930E9F09A3030F530C09D30C1F03A
S11357509D3060F19E30F9F09F3071F432C083E0E7
S11357600E94761B9927282F882339F481E080939F
S11357704C0380E090E030C021E0822F99272CC0B8
S1135780CC24DD24760100E010E020E030E040E0AD
S113579050E061E0E4CFCC24DD24760100E010E0A9
S11357A020E030E040E050E062E0D9CFCC24DD24BA
S11357B0760100E010E020E030E040E050E060E0FE
S11357C0CECFCC24DD24760100E010E020E030E0F0
S11357D040E050E063E0C3CF1F910F91FF90EF9042
S11357E0DF90CF900895CF921F93182F8091840556
S11357F0813041F5C9010E94020CCC2099F411308A
S113580049F0113028F0123049F01330D9F408C0AF
S113581080E001C083E00E947A2B14C081E0FBCFBA
S113582082E0F9CF1092840580E00E94E110C092DA
S1135830920726E030E042E957E06FE975E080E046
S11358400E94C2261F91CF900895CF92EF92FF92AB
S11358500F931F93813049F0813028F0823039F062
S1135860833051F406C080E005C082E003C083E0C9
S113587001C081E00E94F32B1F910F91FF90EF90E4
S1135880CF900895BF92CF92DF92EF92FF920F9341
S11358901F93B82E80914C03882319F085E090E083
S11358A067C087E0B81609F458C08B1550F083E040
S11358B0B81609F452C08B1510F081E009C085E0D8
S11358C007C08BE0B81609F448C08B1530F089E0A6
S11358D0B81611F18B1558F135C08DE0B816E1F00A
S11358E0B81680F18EE0B81611F18FE0B81681F485
S11358F034C082E00E94761B9927282F882349F41C
S113590081E080934C03B092B40C80E090E030C00E
S113591021E0822F99272CC0CC24DD24760100E0DD
S113592010E020E030E040E050E061E0E2CFCC2441
S1135930DD24760100E010E020E030E040E050E0BB
S113594062E0D7CFCC24DD24760100E010E020E033
S113595030E040E050E060E0CCCFCC24DD247601A0
S113596000E010E020E030E040E050E063E0C1CF30
S11359701F910F91FF90EF90DF90CF90BF9008950B
S1135980EF92FF920F931F9380919E05823009F04E
S11359904EC08091BA069927982F88272091BB067C
S11359A03327822B932BE816F906A9F0809172070E
S11359B0813049F0813028F0823049F08330B9F5E4
S11359C008C08CE001C08FE00E94422C30C08DE002
S11359D0FBCF8EE0F9CF40914D074F5F40934D07C9
S11359E08091FD064817B0F481E080939E05552709
S11359F0440F551F40585F4F66277727A2E0EA2ED1
S1135A00F12C012D112D2AEB36E0809172070E94B2
S1135A101F1D0DC0E0912208EF5FE0932208FF27CD
S1135A20E95FFD4F8081809372070E943C1D1F91A6
S1135A300F91FF90EF900895CF92EF92FF920F9302
S1135A401F93893061F08A3018F4883079F405C0E6
S1135A508A3039F08B3051F406C080E005C082E012
S1135A6003C083E001C081E00E94C02C1F910F910C
S1135A70FF90EF90CF9008956F927F928F929F92B4
S1135A80AF92BF92CF92DF92EF92FF920F931F9348
S1135A90CF93DF934B015C01C0E0D0E0E1E4F8E098
S1135AA0CC2E608561FF61C42081318142815381A4
S1135AB0E480F58006811781D501C401821B930B14
S1135AC0A40BB50B8E159F05A007B10708F44DC4B0
S1135AD060FF03C06D7F608708C02E0D3F1D401F0F
S1135AE0511F208331834283538327E0C21609F474
S1135AF01FC12C15C8F042E0C41609F478C04C1537
S1135B0038F0CC2061F151E0C51609F034C429C045
S1135B1085E0C81609F4A1C08C1508F4ABC094E064
S1135B20C91609F028C48CC0EAE0CE1609F4A7C24D
S1135B30EC1548F0F8E0CF1609F4AEC129E0C2161E
S1135B4009F019C43FC24CE0C41609F49AC3C41640
S1135B5008F46DC35DE0C51609F00DC4CBC380E045
S1135B608DC38FB7F894C82FDD2780915103882304
S1135B7081F4C09251031092E306CFBF8091520387
S1135B80882321F488E10E940F0D0EC0C0925303B4
S1135B900BC080E00E94AF0E882329F48091BE06DA
S1135BA081608093BE06CFBF8FB7F894C82FDD27DE
S1135BB080915703882379F491E0909357031092CE
S1135BC03F08CFBF80915803882311F48DE142C070
S1135BD090935903D0C380E00E94D50D882309F027
S1135BE0C0C380914907816080934907BAC32FB726
S1135BF0F89433278BB394E089278BBB2FBF809114
S1135C003703882309F0B7C38091050290910602F7
S1135C108093C205892F99278093C10542E067EBE1
S1135C2075E08FEF9FEF0E949322882309F0A3C3AE
S1135C302FB7F89433278BB38C258BBB2FBF9BC313
S1135C408FB7F894992720910F098FBF213009F05D
S1135C5092C38FE00E940F0D8EC368ED79E180E15D
S1135C6098E00E949F0C68E770E189E795E00E9444
S1135C709F0C81C386E390E00E94CD0BEC0100975A
S1135C80B9F19C01225D3F4F85E88EA71FA619AA92
S1135C9018AA1DAA1CAA1BAA1AAA198218823D8333
S1135CA02C8388E090E09B838A838FEF8D87CE01DD
S1135CB00E960E944B1860E170E0CE014E960E9451
S1135CC038098FEF92E09F8F8E8F80E092E09DA73E
S1135CD08CA76AE3CE010E94230B89AB892F9927F5
S1135CE088ABBE018AE30E94AE25CE010E94020C5D
